{
  "contractName": "MerchantRegistry",
  "abi": [
    {
      "constant": true,
      "inputs": [],
      "name": "owner",
      "outputs": [
        {
          "name": "",
          "type": "address"
        }
      ],
      "payable": false,
      "stateMutability": "view",
      "type": "function"
    },
    {
      "constant": true,
      "inputs": [
        {
          "name": "",
          "type": "address"
        }
      ],
      "name": "merchants",
      "outputs": [
        {
          "name": "registeredBy",
          "type": "address"
        },
        {
          "name": "merchantEthAddress",
          "type": "address"
        },
        {
          "name": "merchantIpfsHash",
          "type": "bytes"
        },
        {
          "name": "enabled",
          "type": "bool"
        }
      ],
      "payable": false,
      "stateMutability": "view",
      "type": "function"
    },
    {
      "inputs": [],
      "payable": false,
      "stateMutability": "nonpayable",
      "type": "constructor"
    },
    {
      "anonymous": false,
      "inputs": [
        {
          "indexed": true,
          "name": "merchantEthAddress",
          "type": "address"
        },
        {
          "indexed": false,
          "name": "merchantIpfsHash",
          "type": "bytes"
        }
      ],
      "name": "MerchantRegistered",
      "type": "event"
    },
    {
      "anonymous": false,
      "inputs": [
        {
          "indexed": true,
          "name": "merchantEthAddress",
          "type": "address"
        },
        {
          "indexed": false,
          "name": "enabled",
          "type": "bool"
        }
      ],
      "name": "MerchantStateChanged",
      "type": "event"
    },
    {
      "constant": false,
      "inputs": [
        {
          "name": "_merchantEthAddress",
          "type": "address"
        },
        {
          "name": "_merchantIpfsHash",
          "type": "bytes"
        }
      ],
      "name": "addMerchant",
      "outputs": [],
      "payable": false,
      "stateMutability": "nonpayable",
      "type": "function"
    },
    {
      "constant": false,
      "inputs": [
        {
          "name": "_merchantEthAddress",
          "type": "address"
        }
      ],
      "name": "disableMerchant",
      "outputs": [],
      "payable": false,
      "stateMutability": "nonpayable",
      "type": "function"
    },
    {
      "constant": false,
      "inputs": [
        {
          "name": "_merchantEthAddress",
          "type": "address"
        }
      ],
      "name": "enableMerchant",
      "outputs": [],
      "payable": false,
      "stateMutability": "nonpayable",
      "type": "function"
    },
    {
      "constant": true,
      "inputs": [
        {
          "name": "_merchantEthAddress",
          "type": "address"
        }
      ],
      "name": "getMerchant",
      "outputs": [
        {
          "name": "",
          "type": "bytes"
        }
      ],
      "payable": false,
      "stateMutability": "view",
      "type": "function"
    }
  ],
  "bytecode": "0x608060405234801561001057600080fd5b50336000806101000a81548173ffffffffffffffffffffffffffffffffffffffff021916908373ffffffffffffffffffffffffffffffffffffffff160217905550610d54806100606000396000f300608060405260043610610078576000357c0100000000000000000000000000000000000000000000000000000000900463ffffffff1680633d4248a31461007d5780637c6d115b146100c05780638da5cb5b14610103578063b2734eaf1461015a578063c57d802e14610216578063ee14e9391461029f575b600080fd5b34801561008957600080fd5b506100be600480360381019080803573ffffffffffffffffffffffffffffffffffffffff1690602001909291905050506103cc565b005b3480156100cc57600080fd5b50610101600480360381019080803573ffffffffffffffffffffffffffffffffffffffff16906020019092919050505061052b565b005b34801561010f57600080fd5b50610118610689565b604051808273ffffffffffffffffffffffffffffffffffffffff1673ffffffffffffffffffffffffffffffffffffffff16815260200191505060405180910390f35b34801561016657600080fd5b5061019b600480360381019080803573ffffffffffffffffffffffffffffffffffffffff1690602001909291905050506106ae565b6040518080602001828103825283818151815260200191508051906020019080838360005b838110156101db5780820151818401526020810190506101c0565b50505050905090810190601f1680156102085780820380516001836020036101000a031916815260200191505b509250505060405180910390f35b34801561022257600080fd5b5061029d600480360381019080803573ffffffffffffffffffffffffffffffffffffffff169060200190929190803590602001908201803590602001908080601f016020809104026020016040519081016040528093929190818152602001838380828437820191505050505050919291929050505061089b565b005b3480156102ab57600080fd5b506102e0600480360381019080803573ffffffffffffffffffffffffffffffffffffffff169060200190929190505050610b6e565b604051808573ffffffffffffffffffffffffffffffffffffffff1673ffffffffffffffffffffffffffffffffffffffff1681526020018473ffffffffffffffffffffffffffffffffffffffff1673ffffffffffffffffffffffffffffffffffffffff1681526020018060200183151515158152602001828103825284818151815260200191508051906020019080838360005b8381101561038e578082015181840152602081019050610373565b50505050905090810190601f1680156103bb5780820380516001836020036101000a031916815260200191505b509550505050505060405180910390f35b60008173ffffffffffffffffffffffffffffffffffffffff16141515156103f257600080fd5b6000600160008373ffffffffffffffffffffffffffffffffffffffff1673ffffffffffffffffffffffffffffffffffffffff16815260200190815260200160002060010160009054906101000a900473ffffffffffffffffffffffffffffffffffffffff1673ffffffffffffffffffffffffffffffffffffffff161415151561047a57600080fd5b6000600160008373ffffffffffffffffffffffffffffffffffffffff1673ffffffffffffffffffffffffffffffffffffffff16815260200190815260200160002060030160006101000a81548160ff0219169083151502179055508073ffffffffffffffffffffffffffffffffffffffff167f6be2e0413dcf4e40c8e6f317995cc7b2f9dc70cec53a0c26ce30d7ae634ab9346000604051808215151515815260200191505060405180910390a250565b60008173ffffffffffffffffffffffffffffffffffffffff161415151561055157600080fd5b6000600160008373ffffffffffffffffffffffffffffffffffffffff1673ffffffffffffffffffffffffffffffffffffffff16815260200190815260200160002060010160009054906101000a900473ffffffffffffffffffffffffffffffffffffffff1673ffffffffffffffffffffffffffffffffffffffff16141515156105d957600080fd5b60018060008373ffffffffffffffffffffffffffffffffffffffff1673ffffffffffffffffffffffffffffffffffffffff16815260200190815260200160002060030160006101000a81548160ff0219169083151502179055508073ffffffffffffffffffffffffffffffffffffffff167f6be2e0413dcf4e40c8e6f317995cc7b2f9dc70cec53a0c26ce30d7ae634ab9346001604051808215151515815260200191505060405180910390a250565b6000809054906101000a900473ffffffffffffffffffffffffffffffffffffffff1681565b606060008273ffffffffffffffffffffffffffffffffffffffff16141515156106d657600080fd5b6000600160008473ffffffffffffffffffffffffffffffffffffffff1673ffffffffffffffffffffffffffffffffffffffff16815260200190815260200160002060010160009054906101000a900473ffffffffffffffffffffffffffffffffffffffff1673ffffffffffffffffffffffffffffffffffffffff161415151561075e57600080fd5b600160008373ffffffffffffffffffffffffffffffffffffffff1673ffffffffffffffffffffffffffffffffffffffff16815260200190815260200160002060030160009054906101000a900460ff1615156107b957600080fd5b600160008373ffffffffffffffffffffffffffffffffffffffff1673ffffffffffffffffffffffffffffffffffffffff1681526020019081526020016000206002018054600181600116156101000203166002900480601f01602080910402602001604051908101604052809291908181526020018280546001816001161561010002031660029004801561088f5780601f106108645761010080835404028352916020019161088f565b820191906000526020600020905b81548152906001019060200180831161087257829003601f168201915b50505050509050919050565b60008151141515156108ac57600080fd5b60008273ffffffffffffffffffffffffffffffffffffffff16141515156108d257600080fd5b6000600160008473ffffffffffffffffffffffffffffffffffffffff1673ffffffffffffffffffffffffffffffffffffffff16815260200190815260200160002060010160009054906101000a900473ffffffffffffffffffffffffffffffffffffffff1673ffffffffffffffffffffffffffffffffffffffff1614151561095957600080fd5b6080604051908101604052803373ffffffffffffffffffffffffffffffffffffffff1681526020018373ffffffffffffffffffffffffffffffffffffffff16815260200182815260200160011515815250600160008473ffffffffffffffffffffffffffffffffffffffff1673ffffffffffffffffffffffffffffffffffffffff16815260200190815260200160002060008201518160000160006101000a81548173ffffffffffffffffffffffffffffffffffffffff021916908373ffffffffffffffffffffffffffffffffffffffff16021790555060208201518160010160006101000a81548173ffffffffffffffffffffffffffffffffffffffff021916908373ffffffffffffffffffffffffffffffffffffffff1602179055506040820151816002019080519060200190610a93929190610c83565b5060608201518160030160006101000a81548160ff0219169083151502179055509050508173ffffffffffffffffffffffffffffffffffffffff167fcd7153a18da27f60dda8d8c1eb6d42d19442636ab82f505e5a948996319701d6826040518080602001828103825283818151815260200191508051906020019080838360005b83811015610b30578082015181840152602081019050610b15565b50505050905090810190601f168015610b5d5780820380516001836020036101000a031916815260200191505b509250505060405180910390a25050565b60016020528060005260406000206000915090508060000160009054906101000a900473ffffffffffffffffffffffffffffffffffffffff16908060010160009054906101000a900473ffffffffffffffffffffffffffffffffffffffff1690806002018054600181600116156101000203166002900480601f016020809104026020016040519081016040528092919081815260200182805460018160011615610100020316600290048015610c665780601f10610c3b57610100808354040283529160200191610c66565b820191906000526020600020905b815481529060010190602001808311610c4957829003601f168201915b5050505050908060030160009054906101000a900460ff16905084565b828054600181600116156101000203166002900490600052602060002090601f016020900481019282601f10610cc457805160ff1916838001178555610cf2565b82800160010185558215610cf2579182015b82811115610cf1578251825591602001919060010190610cd6565b5b509050610cff9190610d03565b5090565b610d2591905b80821115610d21576000816000905550600101610d09565b5090565b905600a165627a7a72305820fd7b1990218e492d0ce90a67ec3bb0a87a1c364ffe0096002ea791abd8316a930029",
  "source": "pragma solidity ^0.4.24;\n\ncontract MerchantRegistry {\n\n    event MerchantRegistered(address indexed merchantEthAddress, bytes merchantIpfsHash);\n    event MerchantStateChanged(address indexed merchantEthAddress, bool enabled);\n\n    address public owner;\n\n    struct Merchant {\n        // this should be a party registered on governance registry\n        address registeredBy;\n\n        // blah\n        address merchantEthAddress;\n\n        // Link to IPFS file to get merchant info\n        bytes merchantIpfsHash;\n\n        // enabled or not\n        bool enabled;\n    }\n\n    // mapping from merchant address to merchant struct for easy verifiability\n    mapping(address => Merchant) public merchants;\n\n    constructor() public {\n        // Can owner be a governance contract?\n        // if possible make the data store separate from all the validation logic, so that it can be migrated\n        owner = msg.sender;\n    }\n\n    // TODO should only be callable by a party on gov registry(colony)\n    function addMerchant(address _merchantEthAddress, bytes _merchantIpfsHash) public {\n        require(_merchantIpfsHash.length != 0);\n        require(_merchantEthAddress != 0x0);\n        require(merchants[_merchantEthAddress].merchantEthAddress == 0x0);\n        merchants[_merchantEthAddress] = Merchant(\n            msg.sender,\n            _merchantEthAddress,\n            _merchantIpfsHash,\n        // for now approved by default, later we can have a better approval process\n            true);\n        // TODO should also register merchant on colony\n\n        emit MerchantRegistered(_merchantEthAddress, _merchantIpfsHash);\n    }\n\n    // TODO should only be callable by a party on gov registry(colony)\n    function disableMerchant(address _merchantEthAddress) public {\n        require(_merchantEthAddress != 0x0);\n        require(merchants[_merchantEthAddress].merchantEthAddress != 0x0);\n        merchants[_merchantEthAddress].enabled = false;\n\n        emit MerchantStateChanged(_merchantEthAddress, false);\n    }\n\n    // TODO should only be callable by a party on gov registry(colony)\n    function enableMerchant(address _merchantEthAddress) public {\n        require(_merchantEthAddress != 0x0);\n        require(merchants[_merchantEthAddress].merchantEthAddress != 0x0);\n        merchants[_merchantEthAddress].enabled = true;\n\n        emit MerchantStateChanged(_merchantEthAddress, true);\n    }\n\n    // verify and get merchant IPFS address - this is for relayers\n    function getMerchant(address _merchantEthAddress) public view returns (bytes) {\n        require(_merchantEthAddress != 0x0);\n        require(merchants[_merchantEthAddress].merchantEthAddress != 0x0);\n        require(merchants[_merchantEthAddress].enabled);\n\n        return merchants[_merchantEthAddress].merchantIpfsHash;\n    }\n\n}\n",
  "sourcePath": "/Users/vimukthi/projects/tute/solidity/pet-shop-tutorial/contracts/MerchantRegistry.sol",
  "compiler": {
    "name": "solc",
    "version": "0.4.24+commit.e67f0147.Emscripten.clang"
  },
  "schemaVersion": "2.0.1",
  "updatedAt": "2018-09-02T12:20:50.826Z"
}