{
  "contractName": "RelayerRegistry",
  "abi": [
    {
      "constant": true,
      "inputs": [],
      "name": "owner",
      "outputs": [
        {
          "name": "",
          "type": "address"
        }
      ],
      "payable": false,
      "stateMutability": "view",
      "type": "function"
    },
    {
      "constant": true,
      "inputs": [
        {
          "name": "",
          "type": "address"
        }
      ],
      "name": "relayer",
      "outputs": [
        {
          "name": "registeredBy",
          "type": "address"
        },
        {
          "name": "relayerEthAddress",
          "type": "address"
        },
        {
          "name": "relayerIpfsHash",
          "type": "bytes"
        },
        {
          "name": "enabled",
          "type": "bool"
        }
      ],
      "payable": false,
      "stateMutability": "view",
      "type": "function"
    },
    {
      "inputs": [],
      "payable": false,
      "stateMutability": "nonpayable",
      "type": "constructor"
    },
    {
      "anonymous": false,
      "inputs": [
        {
          "indexed": true,
          "name": "relayerEthAddress",
          "type": "address"
        },
        {
          "indexed": false,
          "name": "relayerIpfsHash",
          "type": "bytes"
        }
      ],
      "name": "RelayerRegistered",
      "type": "event"
    },
    {
      "anonymous": false,
      "inputs": [
        {
          "indexed": true,
          "name": "relayerEthAddress",
          "type": "address"
        },
        {
          "indexed": false,
          "name": "enabled",
          "type": "bool"
        }
      ],
      "name": "RelayerStateChanged",
      "type": "event"
    },
    {
      "constant": false,
      "inputs": [
        {
          "name": "_relayerEthAddress",
          "type": "address"
        },
        {
          "name": "_relayerIpfsHash",
          "type": "bytes"
        }
      ],
      "name": "addRelayer",
      "outputs": [],
      "payable": false,
      "stateMutability": "nonpayable",
      "type": "function"
    },
    {
      "constant": false,
      "inputs": [
        {
          "name": "_relayerEthAddress",
          "type": "address"
        }
      ],
      "name": "disableRelayer",
      "outputs": [],
      "payable": false,
      "stateMutability": "nonpayable",
      "type": "function"
    },
    {
      "constant": false,
      "inputs": [
        {
          "name": "_relayerEthAddress",
          "type": "address"
        }
      ],
      "name": "enableRelayer",
      "outputs": [],
      "payable": false,
      "stateMutability": "nonpayable",
      "type": "function"
    },
    {
      "constant": true,
      "inputs": [
        {
          "name": "_relayerEthAddress",
          "type": "address"
        }
      ],
      "name": "getRelayer",
      "outputs": [
        {
          "name": "",
          "type": "bytes"
        }
      ],
      "payable": false,
      "stateMutability": "view",
      "type": "function"
    }
  ],
  "bytecode": "0x608060405234801561001057600080fd5b50336000806101000a81548173ffffffffffffffffffffffffffffffffffffffff021916908373ffffffffffffffffffffffffffffffffffffffff160217905550610d54806100606000396000f300608060405260043610610078576000357c0100000000000000000000000000000000000000000000000000000000900463ffffffff1680630390ce511461007d5780635dd349e7146101065780638da5cb5b1461014957806391ae3650146101a0578063c27231da146101e3578063c9b5ef8e1461029f575b600080fd5b34801561008957600080fd5b50610104600480360381019080803573ffffffffffffffffffffffffffffffffffffffff169060200190929190803590602001908201803590602001908080601f01602080910402602001604051908101604052809392919081815260200183838082843782019150505050505091929192905050506103cc565b005b34801561011257600080fd5b50610147600480360381019080803573ffffffffffffffffffffffffffffffffffffffff16906020019092919050505061069f565b005b34801561015557600080fd5b5061015e6107fd565b604051808273ffffffffffffffffffffffffffffffffffffffff1673ffffffffffffffffffffffffffffffffffffffff16815260200191505060405180910390f35b3480156101ac57600080fd5b506101e1600480360381019080803573ffffffffffffffffffffffffffffffffffffffff169060200190929190505050610822565b005b3480156101ef57600080fd5b50610224600480360381019080803573ffffffffffffffffffffffffffffffffffffffff169060200190929190505050610981565b6040518080602001828103825283818151815260200191508051906020019080838360005b83811015610264578082015181840152602081019050610249565b50505050905090810190601f1680156102915780820380516001836020036101000a031916815260200191505b509250505060405180910390f35b3480156102ab57600080fd5b506102e0600480360381019080803573ffffffffffffffffffffffffffffffffffffffff169060200190929190505050610b6e565b604051808573ffffffffffffffffffffffffffffffffffffffff1673ffffffffffffffffffffffffffffffffffffffff1681526020018473ffffffffffffffffffffffffffffffffffffffff1673ffffffffffffffffffffffffffffffffffffffff1681526020018060200183151515158152602001828103825284818151815260200191508051906020019080838360005b8381101561038e578082015181840152602081019050610373565b50505050905090810190601f1680156103bb5780820380516001836020036101000a031916815260200191505b509550505050505060405180910390f35b60008151141515156103dd57600080fd5b60008273ffffffffffffffffffffffffffffffffffffffff161415151561040357600080fd5b6000600160008473ffffffffffffffffffffffffffffffffffffffff1673ffffffffffffffffffffffffffffffffffffffff16815260200190815260200160002060010160009054906101000a900473ffffffffffffffffffffffffffffffffffffffff1673ffffffffffffffffffffffffffffffffffffffff1614151561048a57600080fd5b6080604051908101604052803373ffffffffffffffffffffffffffffffffffffffff1681526020018373ffffffffffffffffffffffffffffffffffffffff16815260200182815260200160011515815250600160008473ffffffffffffffffffffffffffffffffffffffff1673ffffffffffffffffffffffffffffffffffffffff16815260200190815260200160002060008201518160000160006101000a81548173ffffffffffffffffffffffffffffffffffffffff021916908373ffffffffffffffffffffffffffffffffffffffff16021790555060208201518160010160006101000a81548173ffffffffffffffffffffffffffffffffffffffff021916908373ffffffffffffffffffffffffffffffffffffffff16021790555060408201518160020190805190602001906105c4929190610c83565b5060608201518160030160006101000a81548160ff0219169083151502179055509050508173ffffffffffffffffffffffffffffffffffffffff167f92bab8e4628d60f368a982c37186bb035d9ce06b1eb05265ed8820ff92f4697f826040518080602001828103825283818151815260200191508051906020019080838360005b83811015610661578082015181840152602081019050610646565b50505050905090810190601f16801561068e5780820380516001836020036101000a031916815260200191505b509250505060405180910390a25050565b60008173ffffffffffffffffffffffffffffffffffffffff16141515156106c557600080fd5b6000600160008373ffffffffffffffffffffffffffffffffffffffff1673ffffffffffffffffffffffffffffffffffffffff16815260200190815260200160002060010160009054906101000a900473ffffffffffffffffffffffffffffffffffffffff1673ffffffffffffffffffffffffffffffffffffffff161415151561074d57600080fd5b60018060008373ffffffffffffffffffffffffffffffffffffffff1673ffffffffffffffffffffffffffffffffffffffff16815260200190815260200160002060030160006101000a81548160ff0219169083151502179055508073ffffffffffffffffffffffffffffffffffffffff167ff082ed6bdb09b0f3df5718df017efbb0dabaf6d05f4de62d049c3273183eb0df6001604051808215151515815260200191505060405180910390a250565b6000809054906101000a900473ffffffffffffffffffffffffffffffffffffffff1681565b60008173ffffffffffffffffffffffffffffffffffffffff161415151561084857600080fd5b6000600160008373ffffffffffffffffffffffffffffffffffffffff1673ffffffffffffffffffffffffffffffffffffffff16815260200190815260200160002060010160009054906101000a900473ffffffffffffffffffffffffffffffffffffffff1673ffffffffffffffffffffffffffffffffffffffff16141515156108d057600080fd5b6000600160008373ffffffffffffffffffffffffffffffffffffffff1673ffffffffffffffffffffffffffffffffffffffff16815260200190815260200160002060030160006101000a81548160ff0219169083151502179055508073ffffffffffffffffffffffffffffffffffffffff167ff082ed6bdb09b0f3df5718df017efbb0dabaf6d05f4de62d049c3273183eb0df6000604051808215151515815260200191505060405180910390a250565b606060008273ffffffffffffffffffffffffffffffffffffffff16141515156109a957600080fd5b6000600160008473ffffffffffffffffffffffffffffffffffffffff1673ffffffffffffffffffffffffffffffffffffffff16815260200190815260200160002060010160009054906101000a900473ffffffffffffffffffffffffffffffffffffffff1673ffffffffffffffffffffffffffffffffffffffff1614151515610a3157600080fd5b600160008373ffffffffffffffffffffffffffffffffffffffff1673ffffffffffffffffffffffffffffffffffffffff16815260200190815260200160002060030160009054906101000a900460ff161515610a8c57600080fd5b600160008373ffffffffffffffffffffffffffffffffffffffff1673ffffffffffffffffffffffffffffffffffffffff1681526020019081526020016000206002018054600181600116156101000203166002900480601f016020809104026020016040519081016040528092919081815260200182805460018160011615610100020316600290048015610b625780601f10610b3757610100808354040283529160200191610b62565b820191906000526020600020905b815481529060010190602001808311610b4557829003601f168201915b50505050509050919050565b60016020528060005260406000206000915090508060000160009054906101000a900473ffffffffffffffffffffffffffffffffffffffff16908060010160009054906101000a900473ffffffffffffffffffffffffffffffffffffffff1690806002018054600181600116156101000203166002900480601f016020809104026020016040519081016040528092919081815260200182805460018160011615610100020316600290048015610c665780601f10610c3b57610100808354040283529160200191610c66565b820191906000526020600020905b815481529060010190602001808311610c4957829003601f168201915b5050505050908060030160009054906101000a900460ff16905084565b828054600181600116156101000203166002900490600052602060002090601f016020900481019282601f10610cc457805160ff1916838001178555610cf2565b82800160010185558215610cf2579182015b82811115610cf1578251825591602001919060010190610cd6565b5b509050610cff9190610d03565b5090565b610d2591905b80821115610d21576000816000905550600101610d09565b5090565b905600a165627a7a7230582092440c8f5e7a62e6f887ae2ddbc5a6f0c40684eaf2e098b3b42e9d8129c085050029",
  "source": "pragma solidity ^0.4.24;\n\ncontract RelayerRegistry {\n\n    event RelayerRegistered(address indexed relayerEthAddress, bytes relayerIpfsHash);\n    event RelayerStateChanged(address indexed relayerEthAddress, bool enabled);\n\n    address public owner;\n\n    struct Relayer {\n        // this should be a party registered on governance registry\n        address registeredBy;\n\n        // blah\n        address relayerEthAddress;\n\n        // Link to IPFS file to get relayer info\n        bytes relayerIpfsHash;\n\n        // enabled or not\n        bool enabled;\n    }\n\n    // mapping from relayer address to relayer struct for easy verifiability\n    mapping(address => Relayer) public relayer;\n\n    constructor() public {\n        // Can owner be a governance contract?\n        // if possible make the data store separate from all the validation logic, so that it can be migrated\n        owner = msg.sender;\n    }\n\n    // TODO should only be callable by a party on gov registry(colony)\n    function addRelayer(address _relayerEthAddress, bytes _relayerIpfsHash) public {\n        require(_relayerIpfsHash.length != 0);\n        require(_relayerEthAddress != 0x0);\n        require(relayer[_relayerEthAddress].relayerEthAddress == 0x0);\n        relayer[_relayerEthAddress] = Relayer(\n            msg.sender,\n            _relayerEthAddress,\n            _relayerIpfsHash,\n        // for now approved by default, later we can have a better approval process\n            true);\n        // TODO should also register relayer on colony\n\n        emit RelayerRegistered(_relayerEthAddress, _relayerIpfsHash);\n    }\n\n    // TODO should only be callable by a party on gov registry(colony)\n    function disableRelayer(address _relayerEthAddress) public {\n        require(_relayerEthAddress != 0x0);\n        require(relayer[_relayerEthAddress].relayerEthAddress != 0x0);\n        relayer[_relayerEthAddress].enabled = false;\n\n        emit RelayerStateChanged(_relayerEthAddress, false);\n    }\n\n    // TODO should only be callable by a party on gov registry(colony)\n    function enableRelayer(address _relayerEthAddress) public {\n        require(_relayerEthAddress != 0x0);\n        require(relayer[_relayerEthAddress].relayerEthAddress != 0x0);\n        relayer[_relayerEthAddress].enabled = true;\n\n        emit RelayerStateChanged(_relayerEthAddress, true);\n    }\n\n    // verify and get relayer IPFS address - this is for relayers\n    function getRelayer(address _relayerEthAddress) public view returns (bytes) {\n        require(_relayerEthAddress != 0x0);\n        require(relayer[_relayerEthAddress].relayerEthAddress != 0x0);\n        require(relayer[_relayerEthAddress].enabled);\n\n        return relayer[_relayerEthAddress].relayerIpfsHash;\n    }\n\n}\n",
  "sourcePath": "/Users/vimukthi/projects/tute/solidity/pet-shop-tutorial/contracts/RelayerRegistry.sol",
  "compiler": {
    "name": "solc",
    "version": "0.4.24+commit.e67f0147.Emscripten.clang"
  },
  "schemaVersion": "2.0.1",
  "updatedAt": "2018-09-02T12:20:50.826Z"
}