{
  "contractName": "ShipperRegistry",
  "abi": [
    {
      "constant": true,
      "inputs": [
        {
          "name": "",
          "type": "address"
        }
      ],
      "name": "shippers",
      "outputs": [
        {
          "name": "registeredBy",
          "type": "address"
        },
        {
          "name": "shipperEthAddress",
          "type": "address"
        },
        {
          "name": "shipperIpfsHash",
          "type": "bytes"
        },
        {
          "name": "enabled",
          "type": "bool"
        }
      ],
      "payable": false,
      "stateMutability": "view",
      "type": "function"
    },
    {
      "constant": true,
      "inputs": [],
      "name": "owner",
      "outputs": [
        {
          "name": "",
          "type": "address"
        }
      ],
      "payable": false,
      "stateMutability": "view",
      "type": "function"
    },
    {
      "inputs": [],
      "payable": false,
      "stateMutability": "nonpayable",
      "type": "constructor"
    },
    {
      "anonymous": false,
      "inputs": [
        {
          "indexed": true,
          "name": "shipperEthAddress",
          "type": "address"
        },
        {
          "indexed": false,
          "name": "shipperIpfsHash",
          "type": "bytes"
        }
      ],
      "name": "ShipperRegistered",
      "type": "event"
    },
    {
      "anonymous": false,
      "inputs": [
        {
          "indexed": true,
          "name": "shipperEthAddress",
          "type": "address"
        },
        {
          "indexed": false,
          "name": "enabled",
          "type": "bool"
        }
      ],
      "name": "ShipperStateChanged",
      "type": "event"
    },
    {
      "constant": false,
      "inputs": [
        {
          "name": "_shipperEthAddress",
          "type": "address"
        },
        {
          "name": "_shipperIpfsHash",
          "type": "bytes"
        }
      ],
      "name": "addShipper",
      "outputs": [],
      "payable": false,
      "stateMutability": "nonpayable",
      "type": "function"
    },
    {
      "constant": false,
      "inputs": [
        {
          "name": "_shipperEthAddress",
          "type": "address"
        }
      ],
      "name": "disableShipper",
      "outputs": [],
      "payable": false,
      "stateMutability": "nonpayable",
      "type": "function"
    },
    {
      "constant": false,
      "inputs": [
        {
          "name": "_shipperEthAddress",
          "type": "address"
        }
      ],
      "name": "enableShipper",
      "outputs": [],
      "payable": false,
      "stateMutability": "nonpayable",
      "type": "function"
    },
    {
      "constant": true,
      "inputs": [
        {
          "name": "_shipperEthAddress",
          "type": "address"
        }
      ],
      "name": "getShipper",
      "outputs": [
        {
          "name": "",
          "type": "bytes"
        }
      ],
      "payable": false,
      "stateMutability": "view",
      "type": "function"
    }
  ],
  "bytecode": "0x608060405234801561001057600080fd5b50336000806101000a81548173ffffffffffffffffffffffffffffffffffffffff021916908373ffffffffffffffffffffffffffffffffffffffff160217905550610d54806100606000396000f300608060405260043610610078576000357c0100000000000000000000000000000000000000000000000000000000900463ffffffff16806314e990351461007d57806341d1d3f7146100c05780634ed3959c1461010357806367df1710146102305780636e574ddb146102b95780638da5cb5b14610375575b600080fd5b34801561008957600080fd5b506100be600480360381019080803573ffffffffffffffffffffffffffffffffffffffff1690602001909291905050506103cc565b005b3480156100cc57600080fd5b50610101600480360381019080803573ffffffffffffffffffffffffffffffffffffffff16906020019092919050505061052a565b005b34801561010f57600080fd5b50610144600480360381019080803573ffffffffffffffffffffffffffffffffffffffff169060200190929190505050610689565b604051808573ffffffffffffffffffffffffffffffffffffffff1673ffffffffffffffffffffffffffffffffffffffff1681526020018473ffffffffffffffffffffffffffffffffffffffff1673ffffffffffffffffffffffffffffffffffffffff1681526020018060200183151515158152602001828103825284818151815260200191508051906020019080838360005b838110156101f25780820151818401526020810190506101d7565b50505050905090810190601f16801561021f5780820380516001836020036101000a031916815260200191505b509550505050505060405180910390f35b34801561023c57600080fd5b506102b7600480360381019080803573ffffffffffffffffffffffffffffffffffffffff169060200190929190803590602001908201803590602001908080601f016020809104026020016040519081016040528093929190818152602001838380828437820191505050505050919291929050505061079e565b005b3480156102c557600080fd5b506102fa600480360381019080803573ffffffffffffffffffffffffffffffffffffffff169060200190929190505050610a71565b6040518080602001828103825283818151815260200191508051906020019080838360005b8381101561033a57808201518184015260208101905061031f565b50505050905090810190601f1680156103675780820380516001836020036101000a031916815260200191505b509250505060405180910390f35b34801561038157600080fd5b5061038a610c5e565b604051808273ffffffffffffffffffffffffffffffffffffffff1673ffffffffffffffffffffffffffffffffffffffff16815260200191505060405180910390f35b60008173ffffffffffffffffffffffffffffffffffffffff16141515156103f257600080fd5b6000600160008373ffffffffffffffffffffffffffffffffffffffff1673ffffffffffffffffffffffffffffffffffffffff16815260200190815260200160002060010160009054906101000a900473ffffffffffffffffffffffffffffffffffffffff1673ffffffffffffffffffffffffffffffffffffffff161415151561047a57600080fd5b60018060008373ffffffffffffffffffffffffffffffffffffffff1673ffffffffffffffffffffffffffffffffffffffff16815260200190815260200160002060030160006101000a81548160ff0219169083151502179055508073ffffffffffffffffffffffffffffffffffffffff167fb8ac8ef38b680ace7fce11b98b9ec408c9820095fe2c0486302451c313b6eddb6001604051808215151515815260200191505060405180910390a250565b60008173ffffffffffffffffffffffffffffffffffffffff161415151561055057600080fd5b6000600160008373ffffffffffffffffffffffffffffffffffffffff1673ffffffffffffffffffffffffffffffffffffffff16815260200190815260200160002060010160009054906101000a900473ffffffffffffffffffffffffffffffffffffffff1673ffffffffffffffffffffffffffffffffffffffff16141515156105d857600080fd5b6000600160008373ffffffffffffffffffffffffffffffffffffffff1673ffffffffffffffffffffffffffffffffffffffff16815260200190815260200160002060030160006101000a81548160ff0219169083151502179055508073ffffffffffffffffffffffffffffffffffffffff167fb8ac8ef38b680ace7fce11b98b9ec408c9820095fe2c0486302451c313b6eddb6000604051808215151515815260200191505060405180910390a250565b60016020528060005260406000206000915090508060000160009054906101000a900473ffffffffffffffffffffffffffffffffffffffff16908060010160009054906101000a900473ffffffffffffffffffffffffffffffffffffffff1690806002018054600181600116156101000203166002900480601f0160208091040260200160405190810160405280929190818152602001828054600181600116156101000203166002900480156107815780601f1061075657610100808354040283529160200191610781565b820191906000526020600020905b81548152906001019060200180831161076457829003601f168201915b5050505050908060030160009054906101000a900460ff16905084565b60008151141515156107af57600080fd5b60008273ffffffffffffffffffffffffffffffffffffffff16141515156107d557600080fd5b6000600160008473ffffffffffffffffffffffffffffffffffffffff1673ffffffffffffffffffffffffffffffffffffffff16815260200190815260200160002060010160009054906101000a900473ffffffffffffffffffffffffffffffffffffffff1673ffffffffffffffffffffffffffffffffffffffff1614151561085c57600080fd5b6080604051908101604052803373ffffffffffffffffffffffffffffffffffffffff1681526020018373ffffffffffffffffffffffffffffffffffffffff16815260200182815260200160011515815250600160008473ffffffffffffffffffffffffffffffffffffffff1673ffffffffffffffffffffffffffffffffffffffff16815260200190815260200160002060008201518160000160006101000a81548173ffffffffffffffffffffffffffffffffffffffff021916908373ffffffffffffffffffffffffffffffffffffffff16021790555060208201518160010160006101000a81548173ffffffffffffffffffffffffffffffffffffffff021916908373ffffffffffffffffffffffffffffffffffffffff1602179055506040820151816002019080519060200190610996929190610c83565b5060608201518160030160006101000a81548160ff0219169083151502179055509050508173ffffffffffffffffffffffffffffffffffffffff167f0b1052526d4ce2b145ebc14996ca44ff179fde8eaff6a7b9d244668b7afd7d90826040518080602001828103825283818151815260200191508051906020019080838360005b83811015610a33578082015181840152602081019050610a18565b50505050905090810190601f168015610a605780820380516001836020036101000a031916815260200191505b509250505060405180910390a25050565b606060008273ffffffffffffffffffffffffffffffffffffffff1614151515610a9957600080fd5b6000600160008473ffffffffffffffffffffffffffffffffffffffff1673ffffffffffffffffffffffffffffffffffffffff16815260200190815260200160002060010160009054906101000a900473ffffffffffffffffffffffffffffffffffffffff1673ffffffffffffffffffffffffffffffffffffffff1614151515610b2157600080fd5b600160008373ffffffffffffffffffffffffffffffffffffffff1673ffffffffffffffffffffffffffffffffffffffff16815260200190815260200160002060030160009054906101000a900460ff161515610b7c57600080fd5b600160008373ffffffffffffffffffffffffffffffffffffffff1673ffffffffffffffffffffffffffffffffffffffff1681526020019081526020016000206002018054600181600116156101000203166002900480601f016020809104026020016040519081016040528092919081815260200182805460018160011615610100020316600290048015610c525780601f10610c2757610100808354040283529160200191610c52565b820191906000526020600020905b815481529060010190602001808311610c3557829003601f168201915b50505050509050919050565b6000809054906101000a900473ffffffffffffffffffffffffffffffffffffffff1681565b828054600181600116156101000203166002900490600052602060002090601f016020900481019282601f10610cc457805160ff1916838001178555610cf2565b82800160010185558215610cf2579182015b82811115610cf1578251825591602001919060010190610cd6565b5b509050610cff9190610d03565b5090565b610d2591905b80821115610d21576000816000905550600101610d09565b5090565b905600a165627a7a72305820dd18446ccb269e7159788debd91aea321443a2c107cc4fb24ab9419f94246ece0029",
  "source": "pragma solidity ^0.4.24;\n\ncontract ShipperRegistry {\n\n    event ShipperRegistered(address indexed shipperEthAddress, bytes shipperIpfsHash);\n    event ShipperStateChanged(address indexed shipperEthAddress, bool enabled);\n\n    address public owner;\n\n    struct Shipper {\n        // this should be a party registered on governance registry\n        address registeredBy;\n\n        // blah\n        address shipperEthAddress;\n\n        // Link to IPFS file to get shipper info\n        bytes shipperIpfsHash;\n\n        // enabled or not\n        bool enabled;\n    }\n\n    // mapping from shipper address to shipper struct for easy verifiability\n    mapping(address => Shipper) public shippers;\n\n    constructor() public {\n        // Can owner be a governance contract?\n        // if possible make the data store separate from all the validation logic, so that it can be migrated\n        owner = msg.sender;\n    }\n\n    // TODO should only be callable by a party on gov registry(colony)\n    function addShipper(address _shipperEthAddress, bytes _shipperIpfsHash) public {\n        require(_shipperIpfsHash.length != 0);\n        require(_shipperEthAddress != 0x0);\n        require(shippers[_shipperEthAddress].shipperEthAddress == 0x0);\n        shippers[_shipperEthAddress] = Shipper(\n            msg.sender,\n            _shipperEthAddress,\n            _shipperIpfsHash,\n        // for now approved by default, later we can have a better approval process\n            true);\n        // TODO should also register shipper on colony\n\n        emit ShipperRegistered(_shipperEthAddress, _shipperIpfsHash);\n    }\n\n    // TODO should only be callable by a party on gov registry(colony)\n    function disableShipper(address _shipperEthAddress) public {\n        require(_shipperEthAddress != 0x0);\n        require(shippers[_shipperEthAddress].shipperEthAddress != 0x0);\n        shippers[_shipperEthAddress].enabled = false;\n\n        emit ShipperStateChanged(_shipperEthAddress, false);\n    }\n\n    // TODO should only be callable by a party on gov registry(colony)\n    function enableShipper(address _shipperEthAddress) public {\n        require(_shipperEthAddress != 0x0);\n        require(shippers[_shipperEthAddress].shipperEthAddress != 0x0);\n        shippers[_shipperEthAddress].enabled = true;\n\n        emit ShipperStateChanged(_shipperEthAddress, true);\n    }\n\n    // verify and get shipper IPFS address - this is for relayers\n    function getShipper(address _shipperEthAddress) public view returns (bytes) {\n        require(_shipperEthAddress != 0x0);\n        require(shippers[_shipperEthAddress].shipperEthAddress != 0x0);\n        require(shippers[_shipperEthAddress].enabled);\n\n        return shippers[_shipperEthAddress].shipperIpfsHash;\n    }\n\n}\n",
  "sourcePath": "/Users/vimukthi/projects/tute/solidity/pet-shop-tutorial/contracts/ShipperRegistry.sol",
  "compiler": {
    "name": "solc",
    "version": "0.4.24+commit.e67f0147.Emscripten.clang"
  },
  "schemaVersion": "2.0.1",
  "updatedAt": "2018-09-02T11:41:37.557Z"
}