{
  "contractName": "Welandam",
  "abi": [
    {
      "constant": true,
      "inputs": [
        {
          "name": "",
          "type": "uint256"
        }
      ],
      "name": "executedOrders",
      "outputs": [
        {
          "name": "",
          "type": "bytes16"
        }
      ],
      "payable": false,
      "stateMutability": "view",
      "type": "function"
    },
    {
      "constant": true,
      "inputs": [],
      "name": "owner",
      "outputs": [
        {
          "name": "",
          "type": "address"
        }
      ],
      "payable": false,
      "stateMutability": "view",
      "type": "function"
    },
    {
      "constant": true,
      "inputs": [
        {
          "name": "",
          "type": "bytes16"
        }
      ],
      "name": "pendingOrders",
      "outputs": [
        {
          "name": "id",
          "type": "bytes16"
        },
        {
          "components": [
            {
              "name": "hash",
              "type": "bytes32"
            },
            {
              "name": "signature",
              "type": "bytes"
            }
          ],
          "name": "shipper",
          "type": "tuple"
        },
        {
          "components": [
            {
              "name": "hash",
              "type": "bytes32"
            },
            {
              "name": "signature",
              "type": "bytes"
            }
          ],
          "name": "merchant",
          "type": "tuple"
        },
        {
          "components": [
            {
              "name": "hash",
              "type": "bytes32"
            },
            {
              "name": "signature",
              "type": "bytes"
            }
          ],
          "name": "customer",
          "type": "tuple"
        }
      ],
      "payable": false,
      "stateMutability": "view",
      "type": "function"
    },
    {
      "inputs": [],
      "payable": false,
      "stateMutability": "nonpayable",
      "type": "constructor"
    },
    {
      "constant": false,
      "inputs": [],
      "name": "recordOrder",
      "outputs": [],
      "payable": false,
      "stateMutability": "nonpayable",
      "type": "function"
    },
    {
      "constant": false,
      "inputs": [],
      "name": "confirmOrder",
      "outputs": [],
      "payable": false,
      "stateMutability": "nonpayable",
      "type": "function"
    }
  ],
  "bytecode": "0x6080604052600260015534801561001557600080fd5b50336000806101000a81548173ffffffffffffffffffffffffffffffffffffffff021916908373ffffffffffffffffffffffffffffffffffffffff16021790555061050f806100656000396000f30060806040526004361061006d576000357c0100000000000000000000000000000000000000000000000000000000900463ffffffff16806361915e5d1461007257806386a97232146100d95780638da5cb5b146100f0578063a00f198a14610147578063afd4abd71461015e575b600080fd5b34801561007e57600080fd5b5061009d600480360381019080803590602001909291905050506101ed565b60405180826fffffffffffffffffffffffffffffffff19166fffffffffffffffffffffffffffffffff1916815260200191505060405180910390f35b3480156100e557600080fd5b506100ee610233565b005b3480156100fc57600080fd5b50610105610235565b604051808273ffffffffffffffffffffffffffffffffffffffff1673ffffffffffffffffffffffffffffffffffffffff16815260200191505060405180910390f35b34801561015357600080fd5b5061015c61025a565b005b34801561016a57600080fd5b5061019c60048036038101908080356fffffffffffffffffffffffffffffffff1916906020019092919050505061025c565b60405180856fffffffffffffffffffffffffffffffff19166fffffffffffffffffffffffffffffffff1916815260200184815260200183815260200182815260200194505050505060405180910390f35b6003818154811015156101fc57fe5b9060005260206000209060029182820401919006601002915054906101000a90047001000000000000000000000000000000000281565b565b6000809054906101000a900473ffffffffffffffffffffffffffffffffffffffff1681565b565b60026020528060005260406000206000915090508060000160009054906101000a9004700100000000000000000000000000000000029080600301604080519081016040529081600082015460001916600019168152602001600182018054600181600116156101000203166002900480601f01602080910402602001604051908101604052809291908181526020018280546001816001161561010002031660029004801561034d5780601f106103225761010080835404028352916020019161034d565b820191906000526020600020905b81548152906001019060200180831161033057829003601f168201915b5050505050815250509080600501604080519081016040529081600082015460001916600019168152602001600182018054600181600116156101000203166002900480601f0160208091040260200160405190810160405280929190818152602001828054600181600116156101000203166002900480156104115780601f106103e657610100808354040283529160200191610411565b820191906000526020600020905b8154815290600101906020018083116103f457829003601f168201915b5050505050815250509080600701604080519081016040529081600082015460001916600019168152602001600182018054600181600116156101000203166002900480601f0160208091040260200160405190810160405280929190818152602001828054600181600116156101000203166002900480156104d55780601f106104aa576101008083540402835291602001916104d5565b820191906000526020600020905b8154815290600101906020018083116104b857829003601f168201915b5050505050815250509050845600a165627a7a72305820f33546ecddede4f85a014e17942bd2f71d3a15e8916a4812109474ca738eee390029",
  "source": "pragma solidity ^0.4.24;\n\ncontract Welandam {\n\n    // TODO minimize data structs\n\n    address public owner;\n\n    // TODO allow changing this using governance\n    uint numRelayersPerOrder = 2;\n\n    constructor() public {\n        // Can owner be a governance contract?\n        // if possible make the data store separate from all the validation logic, so that it can be migrated\n        owner = msg.sender;\n    }\n\n    // hashes and signatures to do ecrecover\n    struct Party {\n\n        bytes32 hash;\n\n        bytes signature;\n    }\n\n    struct Item {\n        // TODO how to make this private while also allowing the contract and authorized parties to verify the item\n        // one way would be to store the encrypted order on IPFS and store the hash here?\n        bytes itemIpfsHash;\n\n        // we intentionally don't receive the quantity for privacy reasons\n\n        // amount payable in ether\n        uint64 amount;\n    }\n\n    struct Order {\n\n        // IPFS hash\n        bytes16 id;\n\n        Item[] items;\n\n        // TODO decide on exactly how we can handle any number of relayers while also encouraging\n        // all the network participants to relay everyone elses orders\n        // TODO This is a key problem that differentiates welandam from 0x since in 0x in order to share liquidity for exchange orders there is a natural incentive for relayers to share maker orders\n        Party[] relayers;\n\n        Party shipper;\n\n        Party merchant;\n\n        Party customer;\n\n    }\n\n    struct OrderConfirmation {\n        // UUID\n        bytes16 id;\n\n        Party shipper;\n\n        Party customer;\n    }\n\n    // Only stores orders until confirmed\n    // TODO what about returns? do we need a grace period?\n    mapping(bytes16 => Order) public pendingOrders;\n\n    bytes16[] public executedOrders;\n\n    // called by any protocol participant\n    // TODO param Order memory _order\n    function recordOrder() public {\n        // TODO verify sender is in governance registry\n        // TODO ecrecover addresses\n        // TODO verify parties using registries\n        // TODO validate order object\n        // TODO hold amounts from customer account\n        // TODO pay the relayer\n        //pendingOrders[_order.id] = _order;\n\n    }\n\n    // TODO param OrderConfirmation memory _orderConfirmation\n    function confirmOrder() public {\n        // TODO verify order is in pending\n        // TODO verify customer signature\n        // TODO verify shipper signature\n        // TODO transfer amounts to parties\n        //executedOrders.push(_orderConfirmation.id);\n        //delete pendingOrders[_orderConfirmation.id];\n\n    }\n}\n",
  "sourcePath": "/Users/vimukthi/projects/tute/solidity/pet-shop-tutorial/contracts/Welandam.sol",
  "compiler": {
    "name": "solc",
    "version": "0.4.24+commit.e67f0147.Emscripten.clang"
  },
  "schemaVersion": "2.0.1",
  "updatedAt": "2018-09-07T17:13:25.551Z"
}